{
  "contractName": "GiftCard",
  "abi": [
    {
      "inputs": [
        {
          "internalType": "address",
          "name": "_erc20Address",
          "type": "address"
        }
      ],
      "stateMutability": "nonpayable",
      "type": "constructor"
    },
    {
      "anonymous": false,
      "inputs": [
        {
          "indexed": true,
          "internalType": "bytes32",
          "name": "role",
          "type": "bytes32"
        },
        {
          "indexed": true,
          "internalType": "bytes32",
          "name": "previousAdminRole",
          "type": "bytes32"
        },
        {
          "indexed": true,
          "internalType": "bytes32",
          "name": "newAdminRole",
          "type": "bytes32"
        }
      ],
      "name": "RoleAdminChanged",
      "type": "event"
    },
    {
      "anonymous": false,
      "inputs": [
        {
          "indexed": true,
          "internalType": "bytes32",
          "name": "role",
          "type": "bytes32"
        },
        {
          "indexed": true,
          "internalType": "address",
          "name": "account",
          "type": "address"
        },
        {
          "indexed": true,
          "internalType": "address",
          "name": "sender",
          "type": "address"
        }
      ],
      "name": "RoleGranted",
      "type": "event"
    },
    {
      "anonymous": false,
      "inputs": [
        {
          "indexed": true,
          "internalType": "bytes32",
          "name": "role",
          "type": "bytes32"
        },
        {
          "indexed": true,
          "internalType": "address",
          "name": "account",
          "type": "address"
        },
        {
          "indexed": true,
          "internalType": "address",
          "name": "sender",
          "type": "address"
        }
      ],
      "name": "RoleRevoked",
      "type": "event"
    },
    {
      "inputs": [],
      "name": "DEFAULT_ADMIN_ROLE",
      "outputs": [
        {
          "internalType": "bytes32",
          "name": "",
          "type": "bytes32"
        }
      ],
      "stateMutability": "view",
      "type": "function"
    },
    {
      "inputs": [],
      "name": "erc20",
      "outputs": [
        {
          "internalType": "contract IERC20",
          "name": "",
          "type": "address"
        }
      ],
      "stateMutability": "view",
      "type": "function"
    },
    {
      "inputs": [
        {
          "internalType": "bytes32",
          "name": "role",
          "type": "bytes32"
        }
      ],
      "name": "getRoleAdmin",
      "outputs": [
        {
          "internalType": "bytes32",
          "name": "",
          "type": "bytes32"
        }
      ],
      "stateMutability": "view",
      "type": "function"
    },
    {
      "inputs": [
        {
          "internalType": "bytes32",
          "name": "role",
          "type": "bytes32"
        },
        {
          "internalType": "address",
          "name": "account",
          "type": "address"
        }
      ],
      "name": "grantRole",
      "outputs": [],
      "stateMutability": "nonpayable",
      "type": "function"
    },
    {
      "inputs": [
        {
          "internalType": "bytes32",
          "name": "role",
          "type": "bytes32"
        },
        {
          "internalType": "address",
          "name": "account",
          "type": "address"
        }
      ],
      "name": "hasRole",
      "outputs": [
        {
          "internalType": "bool",
          "name": "",
          "type": "bool"
        }
      ],
      "stateMutability": "view",
      "type": "function"
    },
    {
      "inputs": [
        {
          "internalType": "uint256",
          "name": "",
          "type": "uint256"
        }
      ],
      "name": "nullifiers",
      "outputs": [
        {
          "internalType": "bool",
          "name": "",
          "type": "bool"
        }
      ],
      "stateMutability": "view",
      "type": "function"
    },
    {
      "inputs": [
        {
          "internalType": "bytes32",
          "name": "role",
          "type": "bytes32"
        },
        {
          "internalType": "address",
          "name": "account",
          "type": "address"
        }
      ],
      "name": "renounceRole",
      "outputs": [],
      "stateMutability": "nonpayable",
      "type": "function"
    },
    {
      "inputs": [
        {
          "internalType": "bytes32",
          "name": "role",
          "type": "bytes32"
        },
        {
          "internalType": "address",
          "name": "account",
          "type": "address"
        }
      ],
      "name": "revokeRole",
      "outputs": [],
      "stateMutability": "nonpayable",
      "type": "function"
    },
    {
      "inputs": [
        {
          "internalType": "bytes4",
          "name": "interfaceId",
          "type": "bytes4"
        }
      ],
      "name": "supportsInterface",
      "outputs": [
        {
          "internalType": "bool",
          "name": "",
          "type": "bool"
        }
      ],
      "stateMutability": "view",
      "type": "function"
    },
    {
      "inputs": [
        {
          "internalType": "uint256[2]",
          "name": "a",
          "type": "uint256[2]"
        },
        {
          "internalType": "uint256[2][2]",
          "name": "b",
          "type": "uint256[2][2]"
        },
        {
          "internalType": "uint256[2]",
          "name": "c",
          "type": "uint256[2]"
        },
        {
          "internalType": "uint256[3]",
          "name": "input",
          "type": "uint256[3]"
        }
      ],
      "name": "redeem",
      "outputs": [],
      "stateMutability": "nonpayable",
      "type": "function"
    }
  ],
  "bytecode": "0x60806040523480156200001157600080fd5b506040516200341f3803806200341f833981810160405281019062000037919062000261565b6200004c6000801b336200009460201b60201c565b80600160006101000a81548173ffffffffffffffffffffffffffffffffffffffff021916908373ffffffffffffffffffffffffffffffffffffffff1602179055505062000293565b620000a682826200018560201b60201c565b6200018157600160008084815260200190815260200160002060000160008373ffffffffffffffffffffffffffffffffffffffff1673ffffffffffffffffffffffffffffffffffffffff16815260200190815260200160002060006101000a81548160ff02191690831515021790555062000126620001ef60201b60201c565b73ffffffffffffffffffffffffffffffffffffffff168173ffffffffffffffffffffffffffffffffffffffff16837f2f8788117e7eff1d82e926ec794901d17c78024a50270940304540a733656f0d60405160405180910390a45b5050565b600080600084815260200190815260200160002060000160008373ffffffffffffffffffffffffffffffffffffffff1673ffffffffffffffffffffffffffffffffffffffff16815260200190815260200160002060009054906101000a900460ff16905092915050565b600033905090565b600080fd5b600073ffffffffffffffffffffffffffffffffffffffff82169050919050565b60006200022982620001fc565b9050919050565b6200023b816200021c565b81146200024757600080fd5b50565b6000815190506200025b8162000230565b92915050565b6000602082840312156200027a5762000279620001f7565b5b60006200028a848285016200024a565b91505092915050565b61317c80620002a36000396000f3fe608060405234801561001057600080fd5b506004361061009e5760003560e01c8063785e9e8611610066578063785e9e861461015757806391d1485414610175578063a217fddf146101a5578063d21e82ab146101c3578063d547741f146101f35761009e565b806301ffc9a7146100a357806314a33c7e146100d3578063248a9ca3146100ef5780632f2ff15d1461011f57806336568abe1461013b575b600080fd5b6100bd60048036038101906100b89190610c3e565b61020f565b6040516100ca9190610c86565b60405180910390f35b6100ed60048036038101906100e89190610d0c565b610289565b005b61010960048036038101906101049190610dab565b610504565b6040516101169190610de7565b60405180910390f35b61013960048036038101906101349190610e60565b610523565b005b61015560048036038101906101509190610e60565b610544565b005b61015f6105c7565b60405161016c9190610eff565b60405180910390f35b61018f600480360381019061018a9190610e60565b6105ed565b60405161019c9190610c86565b60405180910390f35b6101ad610657565b6040516101ba9190610de7565b60405180910390f35b6101dd60048036038101906101d89190610f50565b61065e565b6040516101ea9190610c86565b60405180910390f35b61020d60048036038101906102089190610e60565b61067e565b005b60007f7965db0b000000000000000000000000000000000000000000000000000000007bffffffffffffffffffffffffffffffffffffffffffffffffffffffff1916827bffffffffffffffffffffffffffffffffffffffffffffffffffffffff1916148061028257506102818261069f565b5b9050919050565b60026000826001600381106102a1576102a0610f7d565b5b6020020135815260200190815260200160002060009054906101000a900460ff1615610302576040517f08c379a00000000000000000000000000000000000000000000000000000000081526004016102f990611009565b60405180910390fd5b60405161030e90610bd4565b604051809103906000f08015801561032a573d6000803e3d6000fd5b5073ffffffffffffffffffffffffffffffffffffffff166311479fea858585856040518563ffffffff1660e01b81526004016103699493929190611111565b602060405180830381865afa158015610386573d6000803e3d6000fd5b505050506040513d601f19601f820116820180604052508101906103aa9190611184565b6103e9576040517f08c379a00000000000000000000000000000000000000000000000000000000081526004016103e0906111fd565b60405180910390fd5b6001600260008360016003811061040357610402610f7d565b5b6020020135815260200190815260200160002060006101000a81548160ff021916908315150217905550600160009054906101000a900473ffffffffffffffffffffffffffffffffffffffff1673ffffffffffffffffffffffffffffffffffffffff1663a9059cbb8260006003811061047f5761047e610f7d565b5b60200201358360026003811061049857610497610f7d565b5b60200201356040518363ffffffff1660e01b81526004016104ba92919061123b565b6020604051808303816000875af11580156104d9573d6000803e3d6000fd5b505050506040513d601f19601f820116820180604052508101906104fd9190611184565b5050505050565b6000806000838152602001908152602001600020600101549050919050565b61052c82610504565b61053581610709565b61053f838361071d565b505050565b61054c6107fd565b73ffffffffffffffffffffffffffffffffffffffff168173ffffffffffffffffffffffffffffffffffffffff16146105b9576040517f08c379a00000000000000000000000000000000000000000000000000000000081526004016105b0906112d6565b60405180910390fd5b6105c38282610805565b5050565b600160009054906101000a900473ffffffffffffffffffffffffffffffffffffffff1681565b600080600084815260200190815260200160002060000160008373ffffffffffffffffffffffffffffffffffffffff1673ffffffffffffffffffffffffffffffffffffffff16815260200190815260200160002060009054906101000a900460ff16905092915050565b6000801b81565b60026020528060005260406000206000915054906101000a900460ff1681565b61068782610504565b61069081610709565b61069a8383610805565b505050565b60007f01ffc9a7000000000000000000000000000000000000000000000000000000007bffffffffffffffffffffffffffffffffffffffffffffffffffffffff1916827bffffffffffffffffffffffffffffffffffffffffffffffffffffffff1916149050919050565b61071a816107156107fd565b6108e6565b50565b61072782826105ed565b6107f957600160008084815260200190815260200160002060000160008373ffffffffffffffffffffffffffffffffffffffff1673ffffffffffffffffffffffffffffffffffffffff16815260200190815260200160002060006101000a81548160ff02191690831515021790555061079e6107fd565b73ffffffffffffffffffffffffffffffffffffffff168173ffffffffffffffffffffffffffffffffffffffff16837f2f8788117e7eff1d82e926ec794901d17c78024a50270940304540a733656f0d60405160405180910390a45b5050565b600033905090565b61080f82826105ed565b156108e257600080600084815260200190815260200160002060000160008373ffffffffffffffffffffffffffffffffffffffff1673ffffffffffffffffffffffffffffffffffffffff16815260200190815260200160002060006101000a81548160ff0219169083151502179055506108876107fd565b73ffffffffffffffffffffffffffffffffffffffff168173ffffffffffffffffffffffffffffffffffffffff16837ff6391f5c32d9c69d2a47ea670b442974b53935d1edc7fd64eb21e047a839171b60405160405180910390a45b5050565b6108f082826105ed565b610967576108fd8161096b565b61090b8360001c6020610998565b60405160200161091c9291906113ff565b6040516020818303038152906040526040517f08c379a000000000000000000000000000000000000000000000000000000000815260040161095e9190611483565b60405180910390fd5b5050565b60606109918273ffffffffffffffffffffffffffffffffffffffff16601460ff16610998565b9050919050565b6060600060028360026109ab91906114d4565b6109b59190611516565b67ffffffffffffffff8111156109ce576109cd61154a565b5b6040519080825280601f01601f191660200182016040528015610a005781602001600182028036833780820191505090505b5090507f300000000000000000000000000000000000000000000000000000000000000081600081518110610a3857610a37610f7d565b5b60200101907effffffffffffffffffffffffffffffffffffffffffffffffffffffffffffff1916908160001a9053507f780000000000000000000000000000000000000000000000000000000000000081600181518110610a9c57610a9b610f7d565b5b60200101907effffffffffffffffffffffffffffffffffffffffffffffffffffffffffffff1916908160001a90535060006001846002610adc91906114d4565b610ae69190611516565b90505b6001811115610b86577f3031323334353637383961626364656600000000000000000000000000000000600f861660108110610b2857610b27610f7d565b5b1a60f81b828281518110610b3f57610b3e610f7d565b5b60200101907effffffffffffffffffffffffffffffffffffffffffffffffffffffffffffff1916908160001a905350600485901c945080610b7f90611579565b9050610ae9565b5060008414610bca576040517f08c379a0000000000000000000000000000000000000000000000000000000008152600401610bc1906115ee565b60405180910390fd5b8091505092915050565b611b388061160f83390190565b600080fd5b60007fffffffff0000000000000000000000000000000000000000000000000000000082169050919050565b610c1b81610be6565b8114610c2657600080fd5b50565b600081359050610c3881610c12565b92915050565b600060208284031215610c5457610c53610be1565b5b6000610c6284828501610c29565b91505092915050565b60008115159050919050565b610c8081610c6b565b82525050565b6000602082019050610c9b6000830184610c77565b92915050565b600080fd5b600081905082602060020282011115610cc257610cc1610ca1565b5b92915050565b600081905082604060020282011115610ce457610ce3610ca1565b5b92915050565b600081905082602060030282011115610d0657610d05610ca1565b5b92915050565b6000806000806101608587031215610d2757610d26610be1565b5b6000610d3587828801610ca6565b9450506040610d4687828801610cc8565b93505060c0610d5787828801610ca6565b925050610100610d6987828801610cea565b91505092959194509250565b6000819050919050565b610d8881610d75565b8114610d9357600080fd5b50565b600081359050610da581610d7f565b92915050565b600060208284031215610dc157610dc0610be1565b5b6000610dcf84828501610d96565b91505092915050565b610de181610d75565b82525050565b6000602082019050610dfc6000830184610dd8565b92915050565b600073ffffffffffffffffffffffffffffffffffffffff82169050919050565b6000610e2d82610e02565b9050919050565b610e3d81610e22565b8114610e4857600080fd5b50565b600081359050610e5a81610e34565b92915050565b60008060408385031215610e7757610e76610be1565b5b6000610e8585828601610d96565b9250506020610e9685828601610e4b565b9150509250929050565b6000819050919050565b6000610ec5610ec0610ebb84610e02565b610ea0565b610e02565b9050919050565b6000610ed782610eaa565b9050919050565b6000610ee982610ecc565b9050919050565b610ef981610ede565b82525050565b6000602082019050610f146000830184610ef0565b92915050565b6000819050919050565b610f2d81610f1a565b8114610f3857600080fd5b50565b600081359050610f4a81610f24565b92915050565b600060208284031215610f6657610f65610be1565b5b6000610f7484828501610f3b565b91505092915050565b7f4e487b7100000000000000000000000000000000000000000000000000000000600052603260045260246000fd5b600082825260208201905092915050565b7f6e756c6c696669657220616c7265616479207573656400000000000000000000600082015250565b6000610ff3601683610fac565b9150610ffe82610fbd565b602082019050919050565b6000602082019050818103600083015261102281610fe6565b9050919050565b82818337505050565b61103e60408383611029565b5050565b600060029050919050565b600081905092915050565b6000819050919050565b61106e60408383611029565b5050565b600061107e8383611062565b60408301905092915050565b600082905092915050565b6000604082019050919050565b6110ab81611042565b6110b5818461104d565b92506110c082611058565b8060005b838110156110f9576110d6828461108a565b6110e08782611072565b96506110eb83611095565b9250506001810190506110c4565b505050505050565b61110d60608383611029565b5050565b6000610160820190506111276000830187611032565b61113460408301866110a2565b61114160c0830185611032565b61114f610100830184611101565b95945050505050565b61116181610c6b565b811461116c57600080fd5b50565b60008151905061117e81611158565b92915050565b60006020828403121561119a57611199610be1565b5b60006111a88482850161116f565b91505092915050565b7f696e76616c69642070726f6f6600000000000000000000000000000000000000600082015250565b60006111e7600d83610fac565b91506111f2826111b1565b602082019050919050565b60006020820190508181036000830152611216816111da565b9050919050565b61122681610e22565b82525050565b61123581610f1a565b82525050565b6000604082019050611250600083018561121d565b61125d602083018461122c565b9392505050565b7f416363657373436f6e74726f6c3a2063616e206f6e6c792072656e6f756e636560008201527f20726f6c657320666f722073656c660000000000000000000000000000000000602082015250565b60006112c0602f83610fac565b91506112cb82611264565b604082019050919050565b600060208201905081810360008301526112ef816112b3565b9050919050565b600081905092915050565b7f416363657373436f6e74726f6c3a206163636f756e7420000000000000000000600082015250565b60006113376017836112f6565b915061134282611301565b601782019050919050565b600081519050919050565b60005b8381101561137657808201518184015260208101905061135b565b60008484015250505050565b600061138d8261134d565b61139781856112f6565b93506113a7818560208601611358565b80840191505092915050565b7f206973206d697373696e6720726f6c6520000000000000000000000000000000600082015250565b60006113e96011836112f6565b91506113f4826113b3565b601182019050919050565b600061140a8261132a565b91506114168285611382565b9150611421826113dc565b915061142d8284611382565b91508190509392505050565b6000601f19601f8301169050919050565b60006114558261134d565b61145f8185610fac565b935061146f818560208601611358565b61147881611439565b840191505092915050565b6000602082019050818103600083015261149d818461144a565b905092915050565b7f4e487b7100000000000000000000000000000000000000000000000000000000600052601160045260246000fd5b60006114df82610f1a565b91506114ea83610f1a565b92508282026114f881610f1a565b9150828204841483151761150f5761150e6114a5565b5b5092915050565b600061152182610f1a565b915061152c83610f1a565b9250828201905080821115611544576115436114a5565b5b92915050565b7f4e487b7100000000000000000000000000000000000000000000000000000000600052604160045260246000fd5b600061158482610f1a565b915060008203611597576115966114a5565b5b600182039050919050565b7f537472696e67733a20686578206c656e67746820696e73756666696369656e74600082015250565b60006115d8602083610fac565b91506115e3826115a2565b602082019050919050565b60006020820190508181036000830152611607816115cb565b905091905056fe608060405234801561001057600080fd5b50611b18806100206000396000f3fe608060405234801561001057600080fd5b506004361061002b5760003560e01c806311479fea14610030575b600080fd5b61004a600480360381019061004591906115fa565b610060565b604051610057919061167e565b60405180910390f35b600061006a6111ca565b60405180604001604052808760006002811061008957610088611699565b5b60200201518152602001876001600281106100a7576100a6611699565b5b6020020151815250816000018190525060405180604001604052806040518060400160405280886000600281106100e1576100e0611699565b5b60200201516000600281106100f9576100f8611699565b5b602002015181526020018860006002811061011757610116611699565b5b602002015160016002811061012f5761012e611699565b5b6020020151815250815260200160405180604001604052808860016002811061015b5761015a611699565b5b602002015160006002811061017357610172611699565b5b602002015181526020018860016002811061019157610190611699565b5b60200201516001600281106101a9576101a8611699565b5b602002015181525081525081602001819052506040518060400160405280856000600281106101db576101da611699565b5b60200201518152602001856001600281106101f9576101f8611699565b5b602002015181525081604001819052506000600367ffffffffffffffff81111561022657610225611331565b5b6040519080825280602002602001820160405280156102545781602001602082028036833780820191505090505b50905060005b60038110156102ad5784816003811061027657610275611699565b5b602002015182828151811061028e5761028d611699565b5b60200260200101818152505080806102a5906116f7565b91505061025a565b5060006102ba82846102d9565b036102ca576001925050506102d1565b6000925050505b949350505050565b6000807f30644e72e131a029b85045b68181585d2833e84879b9709143e1f593f0000001905060006103096104cc565b90508060800151516001865161031f919061173f565b1461035f576040517f08c379a0000000000000000000000000000000000000000000000000000000008152600401610356906117d0565b60405180910390fd5b60006040518060400160405280600081526020016000815250905060005b865181101561044e578387828151811061039a57610399611699565b5b6020026020010151106103e2576040517f08c379a00000000000000000000000000000000000000000000000000000000081526004016103d99061183c565b60405180910390fd5b6104398261043485608001516001856103fb919061173f565b8151811061040c5761040b611699565b5b60200260200101518a858151811061042757610426611699565b5b60200260200101516109c0565b610a98565b91508080610446906116f7565b91505061037d565b5061047881836080015160008151811061046b5761046a611699565b5b6020026020010151610a98565b90506104ae61048a8660000151610b96565b8660200151846000015185602001518587604001518b604001518960600151610c3b565b6104be57600193505050506104c6565b600093505050505b92915050565b6104d46111fd565b60405180604001604052807f1262ca0d1af011cda3c71dde6546e9cb3f81bbd0dfdfe4f3028fcd8e06f057f881526020017f0917854a89f8423a747186afab4b8a5bbaaf079dd8a97e7af34ec69408544dde8152508160000181905250604051806040016040528060405180604001604052807f1ef2db1c627cb82872dfd099aff9bf1c2808b1f872a2d4b706f81f4522a0ca0081526020017f201f6b871cfaedaf009f452a71ce35d4f1402acce9708f8959b5021e481db06c815250815260200160405180604001604052807f203514d94f86ea4dcae5f241fcfbece24bbd1c670fbc21f2da5945ad68a6d1cf81526020017f0ce2942e0cefe4d67089b74a2d85a09beabb9f637d2dc66854c2feed4814adac8152508152508160200181905250604051806040016040528060405180604001604052807f198e9393920d483a7260bfb731fb5d25f1aa493335a9e71297e485b7aef312c281526020017f1800deef121f1e76426a00665e5c4479674322d4f75edadd46debd5cd992f6ed815250815260200160405180604001604052807f090689d0585ff075ec9e99ad690c3395bc4b313370b38ef355acdadcd122975b81526020017f12c85ea5db8c6deb4aab71808dcb408fe3d1e7690c43d37b4ce6cc0166fa7daa8152508152508160400181905250604051806040016040528060405180604001604052807f198e9393920d483a7260bfb731fb5d25f1aa493335a9e71297e485b7aef312c281526020017f1800deef121f1e76426a00665e5c4479674322d4f75edadd46debd5cd992f6ed815250815260200160405180604001604052807f090689d0585ff075ec9e99ad690c3395bc4b313370b38ef355acdadcd122975b81526020017f12c85ea5db8c6deb4aab71808dcb408fe3d1e7690c43d37b4ce6cc0166fa7daa8152508152508160600181905250600467ffffffffffffffff81111561079b5761079a611331565b5b6040519080825280602002602001820160405280156107d457816020015b6107c1611244565b8152602001906001900390816107b95790505b50816080018190525060405180604001604052807f2e145098677e22d21576a191fb919768855608f738d3110bbd6685bbfed4255781526020017f1d0b9353f6b43bfb9772152eebe72ca7b674ccd0167ca297c349750778349e8b815250816080015160008151811061084a57610849611699565b5b602002602001018190525060405180604001604052807f059c98b8514d2dcd740886729fc7ae5209cb82227b1b46874d4cba7b538c63fb81526020017f1e4e8d7257717cc24f876a9a83294eeca29bde7835fb42bfdeb2924d846735fa81525081608001516001815181106108c2576108c1611699565b5b602002602001018190525060405180604001604052807f06c2814f26ac485194a04387629b0222223aeb843d4a9dfe7e221e2f14a4147081526020017f1914b209b15c52a1b0700c34dcc934118959a46f277230f02eaa397a09f40513815250816080015160028151811061093a57610939611699565b5b602002602001018190525060405180604001604052807f2f972368e9a53fa1d575bf54275281e994ede1d55a68fdd17c5656f1d06bcb4881526020017f0577625011a239cfe028d69d5a3df9bbf666c814c453d9c45c4701a3e64edebb81525081608001516003815181106109b2576109b1611699565b5b602002602001018190525090565b6109c8611244565b6109d061125e565b8360000151816000600381106109e9576109e8611699565b5b602002018181525050836020015181600160038110610a0b57610a0a611699565b5b6020020181815250508281600260038110610a2957610a28611699565b5b602002018181525050600060608360808460076107d05a03fa90508060008103610a4f57fe5b5080610a90576040517f08c379a0000000000000000000000000000000000000000000000000000000008152600401610a87906118a8565b60405180910390fd5b505092915050565b610aa0611244565b610aa8611280565b836000015181600060048110610ac157610ac0611699565b5b602002018181525050836020015181600160048110610ae357610ae2611699565b5b602002018181525050826000015181600260048110610b0557610b04611699565b5b602002018181525050826020015181600360048110610b2757610b26611699565b5b602002018181525050600060608360c08460066107d05a03fa90508060008103610b4d57fe5b5080610b8e576040517f08c379a0000000000000000000000000000000000000000000000000000000008152600401610b8590611914565b60405180910390fd5b505092915050565b610b9e611244565b60007f30644e72e131a029b85045b68181585d97816a916871ca8d3c208c16d87cfd47905060008360000151148015610bdb575060008360200151145b15610bff576040518060400160405280600081526020016000815250915050610c36565b604051806040016040528084600001518152602001828560200151610c249190611963565b83610c2f9190611994565b8152509150505b919050565b600080600467ffffffffffffffff811115610c5957610c58611331565b5b604051908082528060200260200182016040528015610c9257816020015b610c7f611244565b815260200190600190039081610c775790505b5090506000600467ffffffffffffffff811115610cb257610cb1611331565b5b604051908082528060200260200182016040528015610ceb57816020015b610cd86112a2565b815260200190600190039081610cd05790505b5090508a82600081518110610d0357610d02611699565b5b60200260200101819052508882600181518110610d2357610d22611699565b5b60200260200101819052508682600281518110610d4357610d42611699565b5b60200260200101819052508482600381518110610d6357610d62611699565b5b60200260200101819052508981600081518110610d8357610d82611699565b5b60200260200101819052508781600181518110610da357610da2611699565b5b60200260200101819052508581600281518110610dc357610dc2611699565b5b60200260200101819052508381600381518110610de357610de2611699565b5b6020026020010181905250610df88282610e08565b9250505098975050505050505050565b60008151835114610e4e576040517f08c379a0000000000000000000000000000000000000000000000000000000008152600401610e4590611a14565b60405180910390fd5b6000835190506000600682610e639190611a34565b905060008167ffffffffffffffff811115610e8157610e80611331565b5b604051908082528060200260200182016040528015610eaf5781602001602082028036833780820191505090505b50905060005b8381101561113457868181518110610ed057610ecf611699565b5b602002602001015160000151826000600684610eec9190611a34565b610ef6919061173f565b81518110610f0757610f06611699565b5b602002602001018181525050868181518110610f2657610f25611699565b5b602002602001015160200151826001600684610f429190611a34565b610f4c919061173f565b81518110610f5d57610f5c611699565b5b602002602001018181525050858181518110610f7c57610f7b611699565b5b602002602001015160000151600060028110610f9b57610f9a611699565b5b6020020151826002600684610fb09190611a34565b610fba919061173f565b81518110610fcb57610fca611699565b5b602002602001018181525050858181518110610fea57610fe9611699565b5b60200260200101516000015160016002811061100957611008611699565b5b602002015182600360068461101e9190611a34565b611028919061173f565b8151811061103957611038611699565b5b60200260200101818152505085818151811061105857611057611699565b5b60200260200101516020015160006002811061107757611076611699565b5b602002015182600460068461108c9190611a34565b611096919061173f565b815181106110a7576110a6611699565b5b6020026020010181815250508581815181106110c6576110c5611699565b5b6020026020010151602001516001600281106110e5576110e4611699565b5b60200201518260056006846110fa9190611a34565b611104919061173f565b8151811061111557611114611699565b5b602002602001018181525050808061112c906116f7565b915050610eb5565b5061113d6112c8565b6000602082602086026020860160086107d05a03fa9050806000810361115f57fe5b50806111a0576040517f08c379a000000000000000000000000000000000000000000000000000000000815260040161119790611ac2565b60405180910390fd5b6000826000600181106111b6576111b5611699565b5b602002015114159550505050505092915050565b60405180606001604052806111dd611244565b81526020016111ea6112a2565b81526020016111f7611244565b81525090565b6040518060a00160405280611210611244565b815260200161121d6112a2565b815260200161122a6112a2565b81526020016112376112a2565b8152602001606081525090565b604051806040016040528060008152602001600081525090565b6040518060600160405280600390602082028036833780820191505090505090565b6040518060800160405280600490602082028036833780820191505090505090565b60405180604001604052806112b56112ea565b81526020016112c26112ea565b81525090565b6040518060200160405280600190602082028036833780820191505090505090565b6040518060400160405280600290602082028036833780820191505090505090565b6000604051905090565b600080fd5b600080fd5b6000601f19601f8301169050919050565b7f4e487b7100000000000000000000000000000000000000000000000000000000600052604160045260246000fd5b61136982611320565b810181811067ffffffffffffffff8211171561138857611387611331565b5b80604052505050565b600061139b61130c565b90506113a78282611360565b919050565b600067ffffffffffffffff8211156113c7576113c6611331565b5b602082029050919050565b600080fd5b6000819050919050565b6113ea816113d7565b81146113f557600080fd5b50565b600081359050611407816113e1565b92915050565b600061142061141b846113ac565b611391565b9050806020840283018581111561143a576114396113d2565b5b835b81811015611463578061144f88826113f8565b84526020840193505060208101905061143c565b5050509392505050565b600082601f8301126114825761148161131b565b5b600261148f84828561140d565b91505092915050565b600067ffffffffffffffff8211156114b3576114b2611331565b5b602082029050919050565b60006114d16114cc84611498565b611391565b905080604084028301858111156114eb576114ea6113d2565b5b835b818110156115145780611500888261146d565b8452602084019350506040810190506114ed565b5050509392505050565b600082601f8301126115335761153261131b565b5b60026115408482856114be565b91505092915050565b600067ffffffffffffffff82111561156457611563611331565b5b602082029050919050565b600061158261157d84611549565b611391565b9050806020840283018581111561159c5761159b6113d2565b5b835b818110156115c557806115b188826113f8565b84526020840193505060208101905061159e565b5050509392505050565b600082601f8301126115e4576115e361131b565b5b60036115f184828561156f565b91505092915050565b600080600080610160858703121561161557611614611316565b5b60006116238782880161146d565b94505060406116348782880161151e565b93505060c06116458782880161146d565b925050610100611657878288016115cf565b91505092959194509250565b60008115159050919050565b61167881611663565b82525050565b6000602082019050611693600083018461166f565b92915050565b7f4e487b7100000000000000000000000000000000000000000000000000000000600052603260045260246000fd5b7f4e487b7100000000000000000000000000000000000000000000000000000000600052601160045260246000fd5b6000611702826113d7565b91507fffffffffffffffffffffffffffffffffffffffffffffffffffffffffffffffff8203611734576117336116c8565b5b600182019050919050565b600061174a826113d7565b9150611755836113d7565b925082820190508082111561176d5761176c6116c8565b5b92915050565b600082825260208201905092915050565b7f76657269666965722d6261642d696e7075740000000000000000000000000000600082015250565b60006117ba601283611773565b91506117c582611784565b602082019050919050565b600060208201905081810360008301526117e9816117ad565b9050919050565b7f76657269666965722d6774652d736e61726b2d7363616c61722d6669656c6400600082015250565b6000611826601f83611773565b9150611831826117f0565b602082019050919050565b6000602082019050818103600083015261185581611819565b9050919050565b7f70616972696e672d6d756c2d6661696c65640000000000000000000000000000600082015250565b6000611892601283611773565b915061189d8261185c565b602082019050919050565b600060208201905081810360008301526118c181611885565b9050919050565b7f70616972696e672d6164642d6661696c65640000000000000000000000000000600082015250565b60006118fe601283611773565b9150611909826118c8565b602082019050919050565b6000602082019050818103600083015261192d816118f1565b9050919050565b7f4e487b7100000000000000000000000000000000000000000000000000000000600052601260045260246000fd5b600061196e826113d7565b9150611979836113d7565b92508261198957611988611934565b5b828206905092915050565b600061199f826113d7565b91506119aa836113d7565b92508282039050818111156119c2576119c16116c8565b5b92915050565b7f70616972696e672d6c656e677468732d6661696c656400000000000000000000600082015250565b60006119fe601683611773565b9150611a09826119c8565b602082019050919050565b60006020820190508181036000830152611a2d816119f1565b9050919050565b6000611a3f826113d7565b9150611a4a836113d7565b9250828202611a58816113d7565b91508282048414831517611a6f57611a6e6116c8565b5b5092915050565b7f70616972696e672d6f70636f64652d6661696c65640000000000000000000000600082015250565b6000611aac601583611773565b9150611ab782611a76565b602082019050919050565b60006020820190508181036000830152611adb81611a9f565b905091905056fea26469706673582212201c7b78bba96393fab4530c8dda720e0417c6d03b822816426d639a31fe0672d164736f6c63430008110033a264697066735822122079f527c00d1362f92ffdd7b5b5e897a15a8c5e304d9c47bb82b7a21e521a65eb64736f6c63430008110033",
  "immutableReferences": {},
  "source": "// SPDX-License-Identifier: MIT\npragma solidity >=0.8.0;\n\nimport {Verifier as GiftVerifier} from \"./giftVerifier.sol\";\nimport \"@openzeppelin/contracts/access/AccessControl.sol\";\nimport \"@openzeppelin/contracts/interfaces/IERC20.sol\";\n\ncontract GiftCard is AccessControl {\n    IERC20 public erc20;\n    mapping(uint256 => bool) public nullifiers;\n\n    constructor(address _erc20Address) {\n        _grantRole(DEFAULT_ADMIN_ROLE, msg.sender);\n        erc20 = IERC20(_erc20Address);\n    }\n\n    function redeem(\n        uint256[2] calldata a,\n        uint256[2][2] calldata b,\n        uint256[2] calldata c,\n        uint256[3] calldata input // [beneficiary, nullifier, amount]\n    ) external {\n        require(!nullifiers[input[1]], \"nullifier already used\");\n        require(\n            (new GiftVerifier()).verifyProof(a, b, c, input),\n            \"invalid proof\"\n        );\n        nullifiers[input[1]] = true;\n        erc20.transfer(address(uint160(input[0])), input[2]);\n    }\n}\n",
  "sourcePath": "/home/rau/Desktop/zkp/cryptoGiftCard/truffle/contracts/GiftCard.sol",
  "compiler": {
    "name": "solc",
    "version": "0.8.17+commit.8df45f5f.Emscripten.clang"
  },
  "schemaVersion": "3.4.11",
  "updatedAt": "2023-08-12T22:59:55.255Z",
  "devdoc": {
    "kind": "dev",
    "methods": {
      "getRoleAdmin(bytes32)": {
        "details": "Returns the admin role that controls `role`. See {grantRole} and {revokeRole}. To change a role's admin, use {_setRoleAdmin}."
      },
      "grantRole(bytes32,address)": {
        "details": "Grants `role` to `account`. If `account` had not been already granted `role`, emits a {RoleGranted} event. Requirements: - the caller must have ``role``'s admin role. May emit a {RoleGranted} event."
      },
      "hasRole(bytes32,address)": {
        "details": "Returns `true` if `account` has been granted `role`."
      },
      "renounceRole(bytes32,address)": {
        "details": "Revokes `role` from the calling account. Roles are often managed via {grantRole} and {revokeRole}: this function's purpose is to provide a mechanism for accounts to lose their privileges if they are compromised (such as when a trusted device is misplaced). If the calling account had been revoked `role`, emits a {RoleRevoked} event. Requirements: - the caller must be `account`. May emit a {RoleRevoked} event."
      },
      "revokeRole(bytes32,address)": {
        "details": "Revokes `role` from `account`. If `account` had been granted `role`, emits a {RoleRevoked} event. Requirements: - the caller must have ``role``'s admin role. May emit a {RoleRevoked} event."
      },
      "supportsInterface(bytes4)": {
        "details": "See {IERC165-supportsInterface}."
      }
    },
    "version": 1
  },
  "userdoc": {
    "kind": "user",
    "methods": {},
    "version": 1
  }
}