{
  "contractName": "GiftCard",
  "abi": [
    {
      "inputs": [
        {
          "internalType": "address",
          "name": "_erc20Address",
          "type": "address"
        },
        {
          "internalType": "uint256",
          "name": "_Ax",
          "type": "uint256"
        },
        {
          "internalType": "uint256",
          "name": "_Ay",
          "type": "uint256"
        }
      ],
      "stateMutability": "nonpayable",
      "type": "constructor"
    },
    {
      "anonymous": false,
      "inputs": [
        {
          "indexed": true,
          "internalType": "bytes32",
          "name": "role",
          "type": "bytes32"
        },
        {
          "indexed": true,
          "internalType": "bytes32",
          "name": "previousAdminRole",
          "type": "bytes32"
        },
        {
          "indexed": true,
          "internalType": "bytes32",
          "name": "newAdminRole",
          "type": "bytes32"
        }
      ],
      "name": "RoleAdminChanged",
      "type": "event"
    },
    {
      "anonymous": false,
      "inputs": [
        {
          "indexed": true,
          "internalType": "bytes32",
          "name": "role",
          "type": "bytes32"
        },
        {
          "indexed": true,
          "internalType": "address",
          "name": "account",
          "type": "address"
        },
        {
          "indexed": true,
          "internalType": "address",
          "name": "sender",
          "type": "address"
        }
      ],
      "name": "RoleGranted",
      "type": "event"
    },
    {
      "anonymous": false,
      "inputs": [
        {
          "indexed": true,
          "internalType": "bytes32",
          "name": "role",
          "type": "bytes32"
        },
        {
          "indexed": true,
          "internalType": "address",
          "name": "account",
          "type": "address"
        },
        {
          "indexed": true,
          "internalType": "address",
          "name": "sender",
          "type": "address"
        }
      ],
      "name": "RoleRevoked",
      "type": "event"
    },
    {
      "inputs": [],
      "name": "Ax",
      "outputs": [
        {
          "internalType": "uint256",
          "name": "",
          "type": "uint256"
        }
      ],
      "stateMutability": "view",
      "type": "function"
    },
    {
      "inputs": [],
      "name": "Ay",
      "outputs": [
        {
          "internalType": "uint256",
          "name": "",
          "type": "uint256"
        }
      ],
      "stateMutability": "view",
      "type": "function"
    },
    {
      "inputs": [],
      "name": "DEFAULT_ADMIN_ROLE",
      "outputs": [
        {
          "internalType": "bytes32",
          "name": "",
          "type": "bytes32"
        }
      ],
      "stateMutability": "view",
      "type": "function"
    },
    {
      "inputs": [],
      "name": "erc20",
      "outputs": [
        {
          "internalType": "contract IERC20",
          "name": "",
          "type": "address"
        }
      ],
      "stateMutability": "view",
      "type": "function"
    },
    {
      "inputs": [
        {
          "internalType": "bytes32",
          "name": "role",
          "type": "bytes32"
        }
      ],
      "name": "getRoleAdmin",
      "outputs": [
        {
          "internalType": "bytes32",
          "name": "",
          "type": "bytes32"
        }
      ],
      "stateMutability": "view",
      "type": "function"
    },
    {
      "inputs": [
        {
          "internalType": "bytes32",
          "name": "role",
          "type": "bytes32"
        },
        {
          "internalType": "address",
          "name": "account",
          "type": "address"
        }
      ],
      "name": "grantRole",
      "outputs": [],
      "stateMutability": "nonpayable",
      "type": "function"
    },
    {
      "inputs": [
        {
          "internalType": "bytes32",
          "name": "role",
          "type": "bytes32"
        },
        {
          "internalType": "address",
          "name": "account",
          "type": "address"
        }
      ],
      "name": "hasRole",
      "outputs": [
        {
          "internalType": "bool",
          "name": "",
          "type": "bool"
        }
      ],
      "stateMutability": "view",
      "type": "function"
    },
    {
      "inputs": [
        {
          "internalType": "uint256",
          "name": "",
          "type": "uint256"
        }
      ],
      "name": "nullifiers",
      "outputs": [
        {
          "internalType": "bool",
          "name": "",
          "type": "bool"
        }
      ],
      "stateMutability": "view",
      "type": "function"
    },
    {
      "inputs": [
        {
          "internalType": "bytes32",
          "name": "role",
          "type": "bytes32"
        },
        {
          "internalType": "address",
          "name": "account",
          "type": "address"
        }
      ],
      "name": "renounceRole",
      "outputs": [],
      "stateMutability": "nonpayable",
      "type": "function"
    },
    {
      "inputs": [
        {
          "internalType": "bytes32",
          "name": "role",
          "type": "bytes32"
        },
        {
          "internalType": "address",
          "name": "account",
          "type": "address"
        }
      ],
      "name": "revokeRole",
      "outputs": [],
      "stateMutability": "nonpayable",
      "type": "function"
    },
    {
      "inputs": [
        {
          "internalType": "bytes4",
          "name": "interfaceId",
          "type": "bytes4"
        }
      ],
      "name": "supportsInterface",
      "outputs": [
        {
          "internalType": "bool",
          "name": "",
          "type": "bool"
        }
      ],
      "stateMutability": "view",
      "type": "function"
    },
    {
      "inputs": [
        {
          "internalType": "uint256[2]",
          "name": "a",
          "type": "uint256[2]"
        },
        {
          "internalType": "uint256[2][2]",
          "name": "b",
          "type": "uint256[2][2]"
        },
        {
          "internalType": "uint256[2]",
          "name": "c",
          "type": "uint256[2]"
        },
        {
          "internalType": "uint256[5]",
          "name": "input",
          "type": "uint256[5]"
        }
      ],
      "name": "redeem",
      "outputs": [],
      "stateMutability": "nonpayable",
      "type": "function"
    },
    {
      "inputs": [
        {
          "internalType": "uint256",
          "name": "_Ax",
          "type": "uint256"
        },
        {
          "internalType": "uint256",
          "name": "_Ay",
          "type": "uint256"
        }
      ],
      "name": "setPublicKey",
      "outputs": [],
      "stateMutability": "nonpayable",
      "type": "function"
    }
  ],
  "bytecode": "0x60806040523480156200001157600080fd5b506040516200373c3803806200373c8339818101604052810190620000379190620002ac565b6200004c6000801b33620000a460201b60201c565b82600160006101000a81548173ffffffffffffffffffffffffffffffffffffffff021916908373ffffffffffffffffffffffffffffffffffffffff160217905550816002819055508060038190555050505062000308565b620000b682826200019560201b60201c565b6200019157600160008084815260200190815260200160002060000160008373ffffffffffffffffffffffffffffffffffffffff1673ffffffffffffffffffffffffffffffffffffffff16815260200190815260200160002060006101000a81548160ff02191690831515021790555062000136620001ff60201b60201c565b73ffffffffffffffffffffffffffffffffffffffff168173ffffffffffffffffffffffffffffffffffffffff16837f2f8788117e7eff1d82e926ec794901d17c78024a50270940304540a733656f0d60405160405180910390a45b5050565b600080600084815260200190815260200160002060000160008373ffffffffffffffffffffffffffffffffffffffff1673ffffffffffffffffffffffffffffffffffffffff16815260200190815260200160002060009054906101000a900460ff16905092915050565b600033905090565b600080fd5b600073ffffffffffffffffffffffffffffffffffffffff82169050919050565b600062000239826200020c565b9050919050565b6200024b816200022c565b81146200025757600080fd5b50565b6000815190506200026b8162000240565b92915050565b6000819050919050565b620002868162000271565b81146200029257600080fd5b50565b600081519050620002a6816200027b565b92915050565b600080600060608486031215620002c857620002c762000207565b5b6000620002d8868287016200025a565b9350506020620002eb8682870162000295565b9250506040620002fe8682870162000295565b9150509250925092565b61342480620003186000396000f3fe608060405234801561001057600080fd5b50600436106100cf5760003560e01c80638eb764b81161008c578063a217fddf11610066578063a217fddf14610210578063d21e82ab1461022e578063d547741f1461025e578063f52d71251461027a576100cf565b80638eb764b8146101a657806391d14854146101c25780639ff526bb146101f2576100cf565b806301ffc9a7146100d4578063248a9ca3146101045780632f2ff15d1461013457806336568abe14610150578063781dc1c71461016c578063785e9e8614610188575b600080fd5b6100ee60048036038101906100e99190610db2565b610298565b6040516100fb9190610dfa565b60405180910390f35b61011e60048036038101906101199190610e4b565b610312565b60405161012b9190610e87565b60405180910390f35b61014e60048036038101906101499190610f00565b610331565b005b61016a60048036038101906101659190610f00565b610352565b005b61018660048036038101906101819190610fab565b6103d5565b005b6101906106d1565b60405161019d9190611073565b60405180910390f35b6101c060048036038101906101bb91906110c4565b6106f7565b005b6101dc60048036038101906101d79190610f00565b610755565b6040516101e99190610dfa565b60405180910390f35b6101fa6107bf565b6040516102079190611113565b60405180910390f35b6102186107c5565b6040516102259190610e87565b60405180910390f35b6102486004803603810190610243919061112e565b6107cc565b6040516102559190610dfa565b60405180910390f35b61027860048036038101906102739190610f00565b6107ec565b005b61028261080d565b60405161028f9190611113565b60405180910390f35b60007f7965db0b000000000000000000000000000000000000000000000000000000007bffffffffffffffffffffffffffffffffffffffffffffffffffffffff1916827bffffffffffffffffffffffffffffffffffffffffffffffffffffffff1916148061030b575061030a82610813565b5b9050919050565b6000806000838152602001908152602001600020600101549050919050565b61033a82610312565b6103438161087d565b61034d8383610891565b505050565b61035a610971565b73ffffffffffffffffffffffffffffffffffffffff168173ffffffffffffffffffffffffffffffffffffffff16146103c7576040517f08c379a00000000000000000000000000000000000000000000000000000000081526004016103be906111de565b60405180910390fd5b6103d18282610979565b5050565b60046000826001600581106103ed576103ec6111fe565b5b6020020135815260200190815260200160002060009054906101000a900460ff161561044e576040517f08c379a000000000000000000000000000000000000000000000000000000000815260040161044590611279565b60405180910390fd5b60025481600360058110610465576104646111fe565b5b6020020135148015610490575060035481600460058110610489576104886111fe565b5b6020020135145b6104cf576040517f08c379a00000000000000000000000000000000000000000000000000000000081526004016104c6906112e5565b60405180910390fd5b6040516104db90610d48565b604051809103906000f0801580156104f7573d6000803e3d6000fd5b5073ffffffffffffffffffffffffffffffffffffffff166334baeab9858585856040518563ffffffff1660e01b815260040161053694939291906113ed565b602060405180830381865afa158015610553573d6000803e3d6000fd5b505050506040513d601f19601f820116820180604052508101906105779190611460565b6105b6576040517f08c379a00000000000000000000000000000000000000000000000000000000081526004016105ad906114d9565b60405180910390fd5b600160046000836001600581106105d0576105cf6111fe565b5b6020020135815260200190815260200160002060006101000a81548160ff021916908315150217905550600160009054906101000a900473ffffffffffffffffffffffffffffffffffffffff1673ffffffffffffffffffffffffffffffffffffffff1663a9059cbb8260006005811061064c5761064b6111fe565b5b602002013583600260058110610665576106646111fe565b5b60200201356040518363ffffffff1660e01b8152600401610687929190611508565b6020604051808303816000875af11580156106a6573d6000803e3d6000fd5b505050506040513d601f19601f820116820180604052508101906106ca9190611460565b5050505050565b600160009054906101000a900473ffffffffffffffffffffffffffffffffffffffff1681565b6107046000801b33610755565b610743576040517f08c379a000000000000000000000000000000000000000000000000000000000815260040161073a9061157d565b60405180910390fd5b81600281905550806003819055505050565b600080600084815260200190815260200160002060000160008373ffffffffffffffffffffffffffffffffffffffff1673ffffffffffffffffffffffffffffffffffffffff16815260200190815260200160002060009054906101000a900460ff16905092915050565b60035481565b6000801b81565b60046020528060005260406000206000915054906101000a900460ff1681565b6107f582610312565b6107fe8161087d565b6108088383610979565b505050565b60025481565b60007f01ffc9a7000000000000000000000000000000000000000000000000000000007bffffffffffffffffffffffffffffffffffffffffffffffffffffffff1916827bffffffffffffffffffffffffffffffffffffffffffffffffffffffff1916149050919050565b61088e81610889610971565b610a5a565b50565b61089b8282610755565b61096d57600160008084815260200190815260200160002060000160008373ffffffffffffffffffffffffffffffffffffffff1673ffffffffffffffffffffffffffffffffffffffff16815260200190815260200160002060006101000a81548160ff021916908315150217905550610912610971565b73ffffffffffffffffffffffffffffffffffffffff168173ffffffffffffffffffffffffffffffffffffffff16837f2f8788117e7eff1d82e926ec794901d17c78024a50270940304540a733656f0d60405160405180910390a45b5050565b600033905090565b6109838282610755565b15610a5657600080600084815260200190815260200160002060000160008373ffffffffffffffffffffffffffffffffffffffff1673ffffffffffffffffffffffffffffffffffffffff16815260200190815260200160002060006101000a81548160ff0219169083151502179055506109fb610971565b73ffffffffffffffffffffffffffffffffffffffff168173ffffffffffffffffffffffffffffffffffffffff16837ff6391f5c32d9c69d2a47ea670b442974b53935d1edc7fd64eb21e047a839171b60405160405180910390a45b5050565b610a648282610755565b610adb57610a7181610adf565b610a7f8360001c6020610b0c565b604051602001610a909291906116a6565b6040516020818303038152906040526040517f08c379a0000000000000000000000000000000000000000000000000000000008152600401610ad2919061172a565b60405180910390fd5b5050565b6060610b058273ffffffffffffffffffffffffffffffffffffffff16601460ff16610b0c565b9050919050565b606060006002836002610b1f919061177b565b610b2991906117bd565b67ffffffffffffffff811115610b4257610b416117f1565b5b6040519080825280601f01601f191660200182016040528015610b745781602001600182028036833780820191505090505b5090507f300000000000000000000000000000000000000000000000000000000000000081600081518110610bac57610bab6111fe565b5b60200101907effffffffffffffffffffffffffffffffffffffffffffffffffffffffffffff1916908160001a9053507f780000000000000000000000000000000000000000000000000000000000000081600181518110610c1057610c0f6111fe565b5b60200101907effffffffffffffffffffffffffffffffffffffffffffffffffffffffffffff1916908160001a90535060006001846002610c50919061177b565b610c5a91906117bd565b90505b6001811115610cfa577f3031323334353637383961626364656600000000000000000000000000000000600f861660108110610c9c57610c9b6111fe565b5b1a60f81b828281518110610cb357610cb26111fe565b5b60200101907effffffffffffffffffffffffffffffffffffffffffffffffffffffffffffff1916908160001a905350600485901c945080610cf390611820565b9050610c5d565b5060008414610d3e576040517f08c379a0000000000000000000000000000000000000000000000000000000008152600401610d3590611895565b60405180910390fd5b8091505092915050565b611b39806118b683390190565b600080fd5b60007fffffffff0000000000000000000000000000000000000000000000000000000082169050919050565b610d8f81610d5a565b8114610d9a57600080fd5b50565b600081359050610dac81610d86565b92915050565b600060208284031215610dc857610dc7610d55565b5b6000610dd684828501610d9d565b91505092915050565b60008115159050919050565b610df481610ddf565b82525050565b6000602082019050610e0f6000830184610deb565b92915050565b6000819050919050565b610e2881610e15565b8114610e3357600080fd5b50565b600081359050610e4581610e1f565b92915050565b600060208284031215610e6157610e60610d55565b5b6000610e6f84828501610e36565b91505092915050565b610e8181610e15565b82525050565b6000602082019050610e9c6000830184610e78565b92915050565b600073ffffffffffffffffffffffffffffffffffffffff82169050919050565b6000610ecd82610ea2565b9050919050565b610edd81610ec2565b8114610ee857600080fd5b50565b600081359050610efa81610ed4565b92915050565b60008060408385031215610f1757610f16610d55565b5b6000610f2585828601610e36565b9250506020610f3685828601610eeb565b9150509250929050565b600080fd5b600081905082602060020282011115610f6157610f60610f40565b5b92915050565b600081905082604060020282011115610f8357610f82610f40565b5b92915050565b600081905082602060050282011115610fa557610fa4610f40565b5b92915050565b6000806000806101a08587031215610fc657610fc5610d55565b5b6000610fd487828801610f45565b9450506040610fe587828801610f67565b93505060c0610ff687828801610f45565b92505061010061100887828801610f89565b91505092959194509250565b6000819050919050565b600061103961103461102f84610ea2565b611014565b610ea2565b9050919050565b600061104b8261101e565b9050919050565b600061105d82611040565b9050919050565b61106d81611052565b82525050565b60006020820190506110886000830184611064565b92915050565b6000819050919050565b6110a18161108e565b81146110ac57600080fd5b50565b6000813590506110be81611098565b92915050565b600080604083850312156110db576110da610d55565b5b60006110e9858286016110af565b92505060206110fa858286016110af565b9150509250929050565b61110d8161108e565b82525050565b60006020820190506111286000830184611104565b92915050565b60006020828403121561114457611143610d55565b5b6000611152848285016110af565b91505092915050565b600082825260208201905092915050565b7f416363657373436f6e74726f6c3a2063616e206f6e6c792072656e6f756e636560008201527f20726f6c657320666f722073656c660000000000000000000000000000000000602082015250565b60006111c8602f8361115b565b91506111d38261116c565b604082019050919050565b600060208201905081810360008301526111f7816111bb565b9050919050565b7f4e487b7100000000000000000000000000000000000000000000000000000000600052603260045260246000fd5b7f616c72656164792072656465656d656400000000000000000000000000000000600082015250565b600061126360108361115b565b915061126e8261122d565b602082019050919050565b6000602082019050818103600083015261129281611256565b9050919050565b7f696e76616c6964207075624b6579000000000000000000000000000000000000600082015250565b60006112cf600e8361115b565b91506112da82611299565b602082019050919050565b600060208201905081810360008301526112fe816112c2565b9050919050565b82818337505050565b61131a60408383611305565b5050565b600060029050919050565b600081905092915050565b6000819050919050565b61134a60408383611305565b5050565b600061135a838361133e565b60408301905092915050565b600082905092915050565b6000604082019050919050565b6113878161131e565b6113918184611329565b925061139c82611334565b8060005b838110156113d5576113b28284611366565b6113bc878261134e565b96506113c783611371565b9250506001810190506113a0565b505050505050565b6113e960a08383611305565b5050565b60006101a082019050611403600083018761130e565b611410604083018661137e565b61141d60c083018561130e565b61142b6101008301846113dd565b95945050505050565b61143d81610ddf565b811461144857600080fd5b50565b60008151905061145a81611434565b92915050565b60006020828403121561147657611475610d55565b5b60006114848482850161144b565b91505092915050565b7f696e76616c69642070726f6f6600000000000000000000000000000000000000600082015250565b60006114c3600d8361115b565b91506114ce8261148d565b602082019050919050565b600060208201905081810360008301526114f2816114b6565b9050919050565b61150281610ec2565b82525050565b600060408201905061151d60008301856114f9565b61152a6020830184611104565b9392505050565b7f6e6f7420616c6c6f776564000000000000000000000000000000000000000000600082015250565b6000611567600b8361115b565b915061157282611531565b602082019050919050565b600060208201905081810360008301526115968161155a565b9050919050565b600081905092915050565b7f416363657373436f6e74726f6c3a206163636f756e7420000000000000000000600082015250565b60006115de60178361159d565b91506115e9826115a8565b601782019050919050565b600081519050919050565b60005b8381101561161d578082015181840152602081019050611602565b60008484015250505050565b6000611634826115f4565b61163e818561159d565b935061164e8185602086016115ff565b80840191505092915050565b7f206973206d697373696e6720726f6c6520000000000000000000000000000000600082015250565b600061169060118361159d565b915061169b8261165a565b601182019050919050565b60006116b1826115d1565b91506116bd8285611629565b91506116c882611683565b91506116d48284611629565b91508190509392505050565b6000601f19601f8301169050919050565b60006116fc826115f4565b611706818561115b565b93506117168185602086016115ff565b61171f816116e0565b840191505092915050565b6000602082019050818103600083015261174481846116f1565b905092915050565b7f4e487b7100000000000000000000000000000000000000000000000000000000600052601160045260246000fd5b60006117868261108e565b91506117918361108e565b925082820261179f8161108e565b915082820484148315176117b6576117b561174c565b5b5092915050565b60006117c88261108e565b91506117d38361108e565b92508282019050808211156117eb576117ea61174c565b5b92915050565b7f4e487b7100000000000000000000000000000000000000000000000000000000600052604160045260246000fd5b600061182b8261108e565b91506000820361183e5761183d61174c565b5b600182039050919050565b7f537472696e67733a20686578206c656e67746820696e73756666696369656e74600082015250565b600061187f60208361115b565b915061188a82611849565b602082019050919050565b600060208201905081810360008301526118ae81611872565b905091905056fe608060405234801561001057600080fd5b50611b19806100206000396000f3fe608060405234801561001057600080fd5b506004361061002b5760003560e01c806334baeab914610030575b600080fd5b61004a60048036038101906100459190611667565b610060565b60405161005791906116eb565b60405180910390f35b600061006a611237565b60405180604001604052808760006002811061008957610088611706565b5b60200201518152602001876001600281106100a7576100a6611706565b5b6020020151815250816000018190525060405180604001604052806040518060400160405280886000600281106100e1576100e0611706565b5b60200201516000600281106100f9576100f8611706565b5b602002015181526020018860006002811061011757610116611706565b5b602002015160016002811061012f5761012e611706565b5b6020020151815250815260200160405180604001604052808860016002811061015b5761015a611706565b5b602002015160006002811061017357610172611706565b5b602002015181526020018860016002811061019157610190611706565b5b60200201516001600281106101a9576101a8611706565b5b602002015181525081525081602001819052506040518060400160405280856000600281106101db576101da611706565b5b60200201518152602001856001600281106101f9576101f8611706565b5b602002015181525081604001819052506000600567ffffffffffffffff8111156102265761022561139e565b5b6040519080825280602002602001820160405280156102545781602001602082028036833780820191505090505b50905060005b60058110156102ad5784816005811061027657610275611706565b5b602002015182828151811061028e5761028d611706565b5b60200260200101818152505080806102a590611764565b91505061025a565b5060006102ba82846102d9565b036102ca576001925050506102d1565b6000925050505b949350505050565b6000806102e4610449565b9050806080015151600185516102fa91906117ac565b1461033a576040517f08c379a00000000000000000000000000000000000000000000000000000000081526004016103319061183d565b60405180910390fd5b60006040518060400160405280600081526020016000815250905060005b85518110156103cd576103b8826103b3856080015160018561037a91906117ac565b8151811061038b5761038a611706565b5b60200260200101518985815181106103a6576103a5611706565b5b6020026020010151610a2d565b610b05565b915080806103c590611764565b915050610358565b506103f78183608001516000815181106103ea576103e9611706565b5b6020026020010151610b05565b905061042d6104098560000151610c03565b8560200151846000015185602001518587604001518a604001518960600151610ca8565b61043c57600192505050610443565b6000925050505b92915050565b61045161126a565b60405180604001604052807f1262ca0d1af011cda3c71dde6546e9cb3f81bbd0dfdfe4f3028fcd8e06f057f881526020017f0917854a89f8423a747186afab4b8a5bbaaf079dd8a97e7af34ec69408544dde8152508160000181905250604051806040016040528060405180604001604052807f1ef2db1c627cb82872dfd099aff9bf1c2808b1f872a2d4b706f81f4522a0ca0081526020017f201f6b871cfaedaf009f452a71ce35d4f1402acce9708f8959b5021e481db06c815250815260200160405180604001604052807f203514d94f86ea4dcae5f241fcfbece24bbd1c670fbc21f2da5945ad68a6d1cf81526020017f0ce2942e0cefe4d67089b74a2d85a09beabb9f637d2dc66854c2feed4814adac8152508152508160200181905250604051806040016040528060405180604001604052807f198e9393920d483a7260bfb731fb5d25f1aa493335a9e71297e485b7aef312c281526020017f1800deef121f1e76426a00665e5c4479674322d4f75edadd46debd5cd992f6ed815250815260200160405180604001604052807f090689d0585ff075ec9e99ad690c3395bc4b313370b38ef355acdadcd122975b81526020017f12c85ea5db8c6deb4aab71808dcb408fe3d1e7690c43d37b4ce6cc0166fa7daa8152508152508160400181905250604051806040016040528060405180604001604052807f198e9393920d483a7260bfb731fb5d25f1aa493335a9e71297e485b7aef312c281526020017f1800deef121f1e76426a00665e5c4479674322d4f75edadd46debd5cd992f6ed815250815260200160405180604001604052807f090689d0585ff075ec9e99ad690c3395bc4b313370b38ef355acdadcd122975b81526020017f12c85ea5db8c6deb4aab71808dcb408fe3d1e7690c43d37b4ce6cc0166fa7daa8152508152508160600181905250600667ffffffffffffffff8111156107185761071761139e565b5b60405190808252806020026020018201604052801561075157816020015b61073e6112b1565b8152602001906001900390816107365790505b50816080018190525060405180604001604052807f2e145098677e22d21576a191fb919768855608f738d3110bbd6685bbfed4255781526020017f1d0b9353f6b43bfb9772152eebe72ca7b674ccd0167ca297c349750778349e8b81525081608001516000815181106107c7576107c6611706565b5b602002602001018190525060405180604001604052807f059c98b8514d2dcd740886729fc7ae5209cb82227b1b46874d4cba7b538c63fb81526020017f1e4e8d7257717cc24f876a9a83294eeca29bde7835fb42bfdeb2924d846735fa815250816080015160018151811061083f5761083e611706565b5b602002602001018190525060405180604001604052807f06c2814f26ac485194a04387629b0222223aeb843d4a9dfe7e221e2f14a4147081526020017f1914b209b15c52a1b0700c34dcc934118959a46f277230f02eaa397a09f4051381525081608001516002815181106108b7576108b6611706565b5b602002602001018190525060405180604001604052807f2f972368e9a53fa1d575bf54275281e994ede1d55a68fdd17c5656f1d06bcb4881526020017f0577625011a239cfe028d69d5a3df9bbf666c814c453d9c45c4701a3e64edebb815250816080015160038151811061092f5761092e611706565b5b602002602001018190525060405180604001604052807f0be4aec7f70202e25a92a1401578d0f645f2c6f5573b70a6ad9454daf49d3c7481526020017f260996123ccde84b41e8c3c376714fa85d5d9ecb45e7656304db6b305ddd8f1b81525081608001516004815181106109a7576109a6611706565b5b602002602001018190525060405180604001604052807f159b1c49fd0c6a9e501fb4c99bb1c3f13d03a1d313904900fbb58e0866f6b03081526020017f2a8089a1c8ee64a4e52af151b62335253f5d5f9a56993f7bb0ed1afd6176c9f18152508160800151600581518110610a1f57610a1e611706565b5b602002602001018190525090565b610a356112b1565b610a3d6112cb565b836000015181600060038110610a5657610a55611706565b5b602002018181525050836020015181600160038110610a7857610a77611706565b5b6020020181815250508281600260038110610a9657610a95611706565b5b602002018181525050600060608360808460076107d05a03fa90508060008103610abc57fe5b5080610afd576040517f08c379a0000000000000000000000000000000000000000000000000000000008152600401610af4906118a9565b60405180910390fd5b505092915050565b610b0d6112b1565b610b156112ed565b836000015181600060048110610b2e57610b2d611706565b5b602002018181525050836020015181600160048110610b5057610b4f611706565b5b602002018181525050826000015181600260048110610b7257610b71611706565b5b602002018181525050826020015181600360048110610b9457610b93611706565b5b602002018181525050600060608360c08460066107d05a03fa90508060008103610bba57fe5b5080610bfb576040517f08c379a0000000000000000000000000000000000000000000000000000000008152600401610bf290611915565b60405180910390fd5b505092915050565b610c0b6112b1565b60007f30644e72e131a029b85045b68181585d97816a916871ca8d3c208c16d87cfd47905060008360000151148015610c48575060008360200151145b15610c6c576040518060400160405280600081526020016000815250915050610ca3565b604051806040016040528084600001518152602001828560200151610c919190611964565b83610c9c9190611995565b8152509150505b919050565b600080600467ffffffffffffffff811115610cc657610cc561139e565b5b604051908082528060200260200182016040528015610cff57816020015b610cec6112b1565b815260200190600190039081610ce45790505b5090506000600467ffffffffffffffff811115610d1f57610d1e61139e565b5b604051908082528060200260200182016040528015610d5857816020015b610d4561130f565b815260200190600190039081610d3d5790505b5090508a82600081518110610d7057610d6f611706565b5b60200260200101819052508882600181518110610d9057610d8f611706565b5b60200260200101819052508682600281518110610db057610daf611706565b5b60200260200101819052508482600381518110610dd057610dcf611706565b5b60200260200101819052508981600081518110610df057610def611706565b5b60200260200101819052508781600181518110610e1057610e0f611706565b5b60200260200101819052508581600281518110610e3057610e2f611706565b5b60200260200101819052508381600381518110610e5057610e4f611706565b5b6020026020010181905250610e658282610e75565b9250505098975050505050505050565b60008151835114610ebb576040517f08c379a0000000000000000000000000000000000000000000000000000000008152600401610eb290611a15565b60405180910390fd5b6000835190506000600682610ed09190611a35565b905060008167ffffffffffffffff811115610eee57610eed61139e565b5b604051908082528060200260200182016040528015610f1c5781602001602082028036833780820191505090505b50905060005b838110156111a157868181518110610f3d57610f3c611706565b5b602002602001015160000151826000600684610f599190611a35565b610f6391906117ac565b81518110610f7457610f73611706565b5b602002602001018181525050868181518110610f9357610f92611706565b5b602002602001015160200151826001600684610faf9190611a35565b610fb991906117ac565b81518110610fca57610fc9611706565b5b602002602001018181525050858181518110610fe957610fe8611706565b5b60200260200101516000015160006002811061100857611007611706565b5b602002015182600260068461101d9190611a35565b61102791906117ac565b8151811061103857611037611706565b5b60200260200101818152505085818151811061105757611056611706565b5b60200260200101516000015160016002811061107657611075611706565b5b602002015182600360068461108b9190611a35565b61109591906117ac565b815181106110a6576110a5611706565b5b6020026020010181815250508581815181106110c5576110c4611706565b5b6020026020010151602001516000600281106110e4576110e3611706565b5b60200201518260046006846110f99190611a35565b61110391906117ac565b8151811061111457611113611706565b5b60200260200101818152505085818151811061113357611132611706565b5b60200260200101516020015160016002811061115257611151611706565b5b60200201518260056006846111679190611a35565b61117191906117ac565b8151811061118257611181611706565b5b602002602001018181525050808061119990611764565b915050610f22565b506111aa611335565b6000602082602086026020860160086107d05a03fa905080600081036111cc57fe5b508061120d576040517f08c379a000000000000000000000000000000000000000000000000000000000815260040161120490611ac3565b60405180910390fd5b60008260006001811061122357611222611706565b5b602002015114159550505050505092915050565b604051806060016040528061124a6112b1565b815260200161125761130f565b81526020016112646112b1565b81525090565b6040518060a0016040528061127d6112b1565b815260200161128a61130f565b815260200161129761130f565b81526020016112a461130f565b8152602001606081525090565b604051806040016040528060008152602001600081525090565b6040518060600160405280600390602082028036833780820191505090505090565b6040518060800160405280600490602082028036833780820191505090505090565b6040518060400160405280611322611357565b815260200161132f611357565b81525090565b6040518060200160405280600190602082028036833780820191505090505090565b6040518060400160405280600290602082028036833780820191505090505090565b6000604051905090565b600080fd5b600080fd5b6000601f19601f8301169050919050565b7f4e487b7100000000000000000000000000000000000000000000000000000000600052604160045260246000fd5b6113d68261138d565b810181811067ffffffffffffffff821117156113f5576113f461139e565b5b80604052505050565b6000611408611379565b905061141482826113cd565b919050565b600067ffffffffffffffff8211156114345761143361139e565b5b602082029050919050565b600080fd5b6000819050919050565b61145781611444565b811461146257600080fd5b50565b6000813590506114748161144e565b92915050565b600061148d61148884611419565b6113fe565b905080602084028301858111156114a7576114a661143f565b5b835b818110156114d057806114bc8882611465565b8452602084019350506020810190506114a9565b5050509392505050565b600082601f8301126114ef576114ee611388565b5b60026114fc84828561147a565b91505092915050565b600067ffffffffffffffff8211156115205761151f61139e565b5b602082029050919050565b600061153e61153984611505565b6113fe565b905080604084028301858111156115585761155761143f565b5b835b81811015611581578061156d88826114da565b84526020840193505060408101905061155a565b5050509392505050565b600082601f8301126115a05761159f611388565b5b60026115ad84828561152b565b91505092915050565b600067ffffffffffffffff8211156115d1576115d061139e565b5b602082029050919050565b60006115ef6115ea846115b6565b6113fe565b905080602084028301858111156116095761160861143f565b5b835b81811015611632578061161e8882611465565b84526020840193505060208101905061160b565b5050509392505050565b600082601f83011261165157611650611388565b5b600561165e8482856115dc565b91505092915050565b6000806000806101a0858703121561168257611681611383565b5b6000611690878288016114da565b94505060406116a18782880161158b565b93505060c06116b2878288016114da565b9250506101006116c48782880161163c565b91505092959194509250565b60008115159050919050565b6116e5816116d0565b82525050565b600060208201905061170060008301846116dc565b92915050565b7f4e487b7100000000000000000000000000000000000000000000000000000000600052603260045260246000fd5b7f4e487b7100000000000000000000000000000000000000000000000000000000600052601160045260246000fd5b600061176f82611444565b91507fffffffffffffffffffffffffffffffffffffffffffffffffffffffffffffffff82036117a1576117a0611735565b5b600182019050919050565b60006117b782611444565b91506117c283611444565b92508282019050808211156117da576117d9611735565b5b92915050565b600082825260208201905092915050565b7f76657269666965722d6261642d696e7075740000000000000000000000000000600082015250565b60006118276012836117e0565b9150611832826117f1565b602082019050919050565b600060208201905081810360008301526118568161181a565b9050919050565b7f70616972696e672d6d756c2d6661696c65640000000000000000000000000000600082015250565b60006118936012836117e0565b915061189e8261185d565b602082019050919050565b600060208201905081810360008301526118c281611886565b9050919050565b7f70616972696e672d6164642d6661696c65640000000000000000000000000000600082015250565b60006118ff6012836117e0565b915061190a826118c9565b602082019050919050565b6000602082019050818103600083015261192e816118f2565b9050919050565b7f4e487b7100000000000000000000000000000000000000000000000000000000600052601260045260246000fd5b600061196f82611444565b915061197a83611444565b92508261198a57611989611935565b5b828206905092915050565b60006119a082611444565b91506119ab83611444565b92508282039050818111156119c3576119c2611735565b5b92915050565b7f70616972696e672d6c656e677468732d6661696c656400000000000000000000600082015250565b60006119ff6016836117e0565b9150611a0a826119c9565b602082019050919050565b60006020820190508181036000830152611a2e816119f2565b9050919050565b6000611a4082611444565b9150611a4b83611444565b9250828202611a5981611444565b91508282048414831517611a7057611a6f611735565b5b5092915050565b7f70616972696e672d6f70636f64652d6661696c65640000000000000000000000600082015250565b6000611aad6015836117e0565b9150611ab882611a77565b602082019050919050565b60006020820190508181036000830152611adc81611aa0565b905091905056fea2646970667358221220c2f64371be7b01f8f9960129c6bf5aa737fec788265847050d21068cbec6f09b64736f6c63430008110033a264697066735822122051a4e6dcae215404e8876308bf7201da773aecb49180bebfd0c09e4a384f9fbc64736f6c63430008110033",
  "immutableReferences": {},
  "source": "// SPDX-License-Identifier: MIT\npragma solidity >=0.8.0;\n\nimport {Verifier as GiftVerifier} from \"./giftVerifier.sol\";\nimport \"@openzeppelin/contracts/access/AccessControl.sol\";\nimport \"@openzeppelin/contracts/interfaces/IERC20.sol\";\n\ncontract GiftCard is AccessControl {\n    IERC20 public erc20;\n    // eddsa public key\n    uint256 public Ax;\n    uint256 public Ay;\n    mapping(uint256 => bool) public nullifiers;\n\n    constructor(address _erc20Address, uint256 _Ax, uint256 _Ay) {\n        _grantRole(DEFAULT_ADMIN_ROLE, msg.sender);\n        erc20 = IERC20(_erc20Address);\n        Ax = _Ax;\n        Ay = _Ay;\n    }\n\n    function redeem(\n        uint256[2] calldata a,\n        uint256[2][2] calldata b,\n        uint256[2] calldata c,\n        uint256[5] calldata input // [beneficiary, nullifier, amount, Ax, Ay]\n    ) external {\n        require(!nullifiers[input[1]], \"already redeemed\");\n        require(input[3] == Ax && input[4] == Ay, \"invalid pubKey\");\n        require(\n            (new GiftVerifier()).verifyProof(a, b, c, input),\n            \"invalid proof\"\n        );\n        nullifiers[input[1]] = true;\n        erc20.transfer(address(uint160(input[0])), input[2]);\n    }\n\n    // setters\n    function setPublicKey(uint256 _Ax, uint256 _Ay) external {\n        require(hasRole(DEFAULT_ADMIN_ROLE, msg.sender), \"not allowed\");\n        Ax = _Ax;\n        Ay = _Ay;\n    }\n}\n",
  "sourcePath": "/home/rau/Desktop/zkp/cryptoGiftCard/truffle/contracts/GiftCard.sol",
  "compiler": {
    "name": "solc",
    "version": "0.8.17+commit.8df45f5f.Emscripten.clang"
  },
  "schemaVersion": "3.4.11",
  "updatedAt": "2023-08-13T05:12:46.237Z",
  "devdoc": {
    "kind": "dev",
    "methods": {
      "getRoleAdmin(bytes32)": {
        "details": "Returns the admin role that controls `role`. See {grantRole} and {revokeRole}. To change a role's admin, use {_setRoleAdmin}."
      },
      "grantRole(bytes32,address)": {
        "details": "Grants `role` to `account`. If `account` had not been already granted `role`, emits a {RoleGranted} event. Requirements: - the caller must have ``role``'s admin role. May emit a {RoleGranted} event."
      },
      "hasRole(bytes32,address)": {
        "details": "Returns `true` if `account` has been granted `role`."
      },
      "renounceRole(bytes32,address)": {
        "details": "Revokes `role` from the calling account. Roles are often managed via {grantRole} and {revokeRole}: this function's purpose is to provide a mechanism for accounts to lose their privileges if they are compromised (such as when a trusted device is misplaced). If the calling account had been revoked `role`, emits a {RoleRevoked} event. Requirements: - the caller must be `account`. May emit a {RoleRevoked} event."
      },
      "revokeRole(bytes32,address)": {
        "details": "Revokes `role` from `account`. If `account` had been granted `role`, emits a {RoleRevoked} event. Requirements: - the caller must have ``role``'s admin role. May emit a {RoleRevoked} event."
      },
      "supportsInterface(bytes4)": {
        "details": "See {IERC165-supportsInterface}."
      }
    },
    "version": 1
  },
  "userdoc": {
    "kind": "user",
    "methods": {},
    "version": 1
  }
}